{
  "_format": "hh-sol-artifact-1",
  "contractName": "ProductionPoolConfigurator",
  "sourceName": "contracts/protocol/pool/ProductionPoolConfigurator.sol",
  "abi": [
    {
      "inputs": [
        {
          "internalType": "contract IPoolAddressesProvider",
          "name": "provider",
          "type": "address"
        }
      ],
      "stateMutability": "nonpayable",
      "type": "constructor"
    },
    {
      "inputs": [],
      "name": "CallerNotAssetListingOrPoolAdmin",
      "type": "error"
    },
    {
      "anonymous": false,
      "inputs": [
        {
          "indexed": true,
          "internalType": "address",
          "name": "asset",
          "type": "address"
        },
        {
          "indexed": false,
          "internalType": "address",
          "name": "supplyToken",
          "type": "address"
        },
        {
          "indexed": false,
          "internalType": "address",
          "name": "borrowToken",
          "type": "address"
        }
      ],
      "name": "AssetInitialized",
      "type": "event"
    },
    {
      "inputs": [],
      "name": "ADDRESSES_PROVIDER",
      "outputs": [
        {
          "internalType": "contract IPoolAddressesProvider",
          "name": "",
          "type": "address"
        }
      ],
      "stateMutability": "view",
      "type": "function"
    },
    {
      "inputs": [],
      "name": "POOL",
      "outputs": [
        {
          "internalType": "contract IPool",
          "name": "",
          "type": "address"
        }
      ],
      "stateMutability": "view",
      "type": "function"
    },
    {
      "inputs": [
        {
          "internalType": "uint256",
          "name": "",
          "type": "uint256"
        }
      ],
      "name": "assetsList",
      "outputs": [
        {
          "internalType": "address",
          "name": "",
          "type": "address"
        }
      ],
      "stateMutability": "view",
      "type": "function"
    },
    {
      "inputs": [
        {
          "internalType": "address",
          "name": "",
          "type": "address"
        }
      ],
      "name": "borrowTokens",
      "outputs": [
        {
          "internalType": "address",
          "name": "",
          "type": "address"
        }
      ],
      "stateMutability": "view",
      "type": "function"
    },
    {
      "inputs": [],
      "name": "getAssetsCount",
      "outputs": [
        {
          "internalType": "uint256",
          "name": "",
          "type": "uint256"
        }
      ],
      "stateMutability": "view",
      "type": "function"
    },
    {
      "inputs": [
        {
          "internalType": "address",
          "name": "asset",
          "type": "address"
        }
      ],
      "name": "getBorrowToken",
      "outputs": [
        {
          "internalType": "address",
          "name": "",
          "type": "address"
        }
      ],
      "stateMutability": "view",
      "type": "function"
    },
    {
      "inputs": [
        {
          "internalType": "address",
          "name": "asset",
          "type": "address"
        }
      ],
      "name": "getSupplyToken",
      "outputs": [
        {
          "internalType": "address",
          "name": "",
          "type": "address"
        }
      ],
      "stateMutability": "view",
      "type": "function"
    },
    {
      "inputs": [
        {
          "internalType": "address",
          "name": "supplyTokenImpl",
          "type": "address"
        },
        {
          "internalType": "address",
          "name": "borrowTokenImpl",
          "type": "address"
        }
      ],
      "name": "initHBAR",
      "outputs": [],
      "stateMutability": "nonpayable",
      "type": "function"
    },
    {
      "inputs": [
        {
          "internalType": "address",
          "name": "supplyTokenImpl",
          "type": "address"
        },
        {
          "internalType": "address",
          "name": "borrowTokenImpl",
          "type": "address"
        }
      ],
      "name": "initSAUCE",
      "outputs": [],
      "stateMutability": "nonpayable",
      "type": "function"
    },
    {
      "inputs": [
        {
          "internalType": "address",
          "name": "supplyTokenImpl",
          "type": "address"
        },
        {
          "internalType": "address",
          "name": "borrowTokenImpl",
          "type": "address"
        }
      ],
      "name": "initUSDC",
      "outputs": [],
      "stateMutability": "nonpayable",
      "type": "function"
    },
    {
      "inputs": [
        {
          "internalType": "address",
          "name": "",
          "type": "address"
        }
      ],
      "name": "supplyTokens",
      "outputs": [
        {
          "internalType": "address",
          "name": "",
          "type": "address"
        }
      ],
      "stateMutability": "view",
      "type": "function"
    }
  ],
  "bytecode": "0x60c060405234801561001057600080fd5b50604051610e68380380610e6883398101604081905261002f916100c7565b6001600160a01b03811660808190526040805163026b1d5f60e01b8152905163026b1d5f916004808201926020929091908290030181865afa158015610079573d6000803e3d6000fd5b505050506040513d601f19601f8201168201806040525081019061009d91906100c7565b6001600160a01b031660a052506100eb565b6001600160a01b03811681146100c457600080fd5b50565b6000602082840312156100d957600080fd5b81516100e4816100af565b9392505050565b60805160a051610d366101326000396000818161015c0152818161094301526109c901526000818160b3015281816102260152818161047101526106890152610d366000f3fe608060405234801561001057600080fd5b50600436106100a95760003560e01c80637535d246116100715780637535d246146101575780638a1e69871461017e578063ae9141af14610191578063cd800ba6146101a4578063de132168146101cd578063f766b660146101f957600080fd5b80630542975c146100ae5780630aac5dfd146100f25780633765891f146101035780636ca9e5c41461012f57806371e85c4114610144575b600080fd5b6100d57f000000000000000000000000000000000000000000000000000000000000000081565b6040516001600160a01b0390911681526020015b60405180910390f35b6002546040519081526020016100e9565b6100d5610111366004610ba0565b6001600160a01b039081166000908152600160205260409020541690565b61014261013d366004610bc4565b610222565b005b6100d5610152366004610bfd565b610443565b6100d57f000000000000000000000000000000000000000000000000000000000000000081565b61014261018c366004610bc4565b61046d565b61014261019f366004610bc4565b610685565b6100d56101b2366004610ba0565b6001602052600090815260409020546001600160a01b031681565b6100d56101db366004610ba0565b6001600160a01b039081166000908152602081905260409020541690565b6100d5610207366004610ba0565b6000602081905290815260409020546001600160a01b031681565b60007f00000000000000000000000000000000000000000000000000000000000000006001600160a01b031663707cd7166040518163ffffffff1660e01b8152600401602060405180830381865afa158015610282573d6000803e3d6000fd5b505050506040513d601f19601f820116820180604052508101906102a69190610c16565b604051629f719760e51b81523360048201529091506001600160a01b038216906313ee32e090602401602060405180830381865afa1580156102ec573d6000803e3d6000fd5b505050506040513d601f19601f820116820180604052508101906103109190610c33565b1580156103825750604051637be53ca160e01b81523360048201526001600160a01b03821690637be53ca190602401602060405180830381865afa15801561035c573d6000803e3d6000fd5b505050506040513d601f19601f820116820180604052508101906103809190610c33565b155b156103a057604051630e8e140f60e21b815260040160405180910390fd5b61043e8383620b2ad560066040518060400160405280600a8152602001694465726120534155434560b01b8152506040518060400160405280600681526020016564534155434560d01b815250604051806040016040528060138152602001725661726961626c65204465627420534155434560681b815250604051806040016040528060078152602001667664534155434560c81b815250610897565b505050565b6002818154811061045357600080fd5b6000918252602090912001546001600160a01b0316905081565b60007f00000000000000000000000000000000000000000000000000000000000000006001600160a01b031663707cd7166040518163ffffffff1660e01b8152600401602060405180830381865afa1580156104cd573d6000803e3d6000fd5b505050506040513d601f19601f820116820180604052508101906104f19190610c16565b604051629f719760e51b81523360048201529091506001600160a01b038216906313ee32e090602401602060405180830381865afa158015610537573d6000803e3d6000fd5b505050506040513d601f19601f8201168201806040525081019061055b9190610c33565b1580156105cd5750604051637be53ca160e01b81523360048201526001600160a01b03821690637be53ca190602401602060405180830381865afa1580156105a7573d6000803e3d6000fd5b505050506040513d601f19601f820116820180604052508101906105cb9190610c33565b155b156105eb57604051630e8e140f60e21b815260040160405180910390fd5b61043e83836206f89a60066040518060400160405280600981526020016844657261205553444360b81b81525060405180604001604052806005815260200164645553444360d81b815250604051806040016040528060128152602001715661726961626c652044656274205553444360701b8152506040518060400160405280600681526020016576645553444360d01b815250610897565b60007f00000000000000000000000000000000000000000000000000000000000000006001600160a01b031663707cd7166040518163ffffffff1660e01b8152600401602060405180830381865afa1580156106e5573d6000803e3d6000fd5b505050506040513d601f19601f820116820180604052508101906107099190610c16565b604051629f719760e51b81523360048201529091506001600160a01b038216906313ee32e090602401602060405180830381865afa15801561074f573d6000803e3d6000fd5b505050506040513d601f19601f820116820180604052508101906107739190610c33565b1580156107e55750604051637be53ca160e01b81523360048201526001600160a01b03821690637be53ca190602401602060405180830381865afa1580156107bf573d6000803e3d6000fd5b505050506040513d601f19601f820116820180604052508101906107e39190610c33565b155b1561080357604051630e8e140f60e21b815260040160405180910390fd5b61043e838360006008604051806040016040528060098152602001682232b93090242120a960b91b8152506040518060400160405280600581526020016432242120a960d91b815250604051806040016040528060128152602001712b30b934b0b13632902232b13a10242120a960711b815250604051806040016040528060068152602001653b32242120a960d11b8152505b6001600160a01b0386811660009081526020819052604090205416156109045760405162461bcd60e51b815260206004820152601960248201527f417373657420616c726561647920696e697469616c697a65640000000000000060448201526064015b60405180910390fd5b600061090f89610aee565b9050600061091c89610aee565b604051637fdd585f60e01b81529091506001600160a01b03831690637fdd585f90610973907f0000000000000000000000000000000000000000000000000000000000000000908c908c908c908c90600401610c9b565b600060405180830381600087803b15801561098d57600080fd5b505af11580156109a1573d6000803e3d6000fd5b5050604051637fdd585f60e01b81526001600160a01b0384169250637fdd585f91506109f9907f0000000000000000000000000000000000000000000000000000000000000000908c908c908a908a90600401610c9b565b600060405180830381600087803b158015610a1357600080fd5b505af1158015610a27573d6000803e3d6000fd5b505050506001600160a01b0388811660008181526020818152604080832080548887166001600160a01b0319918216811790925560018085528386208054988a16988316891790556002805491820181559095527f405787fa12a823e0f2b7631cc41b3ba8828b3321ca811111fa75cd3aa3bb5ace9094018054909416851790935580519283529082019390935290917f679b1445ea90c770a005dabc119caa089a0892bfca944a04a116c462758567dd910160405180910390a250505050505050505050565b6000763d602d80600a3d3981f3363d3d373d3d3d363d730000008260601b60e81c176000526e5af43d82803e903d91602b57fd5bf38260781b17602052603760096000f090506001600160a01b038116610b835760405162461bcd60e51b8152602060048201526016602482015275115490cc4c4d8dce8818dc99585d194819985a5b195960521b60448201526064016108fb565b919050565b6001600160a01b0381168114610b9d57600080fd5b50565b600060208284031215610bb257600080fd5b8135610bbd81610b88565b9392505050565b60008060408385031215610bd757600080fd5b8235610be281610b88565b91506020830135610bf281610b88565b809150509250929050565b600060208284031215610c0f57600080fd5b5035919050565b600060208284031215610c2857600080fd5b8151610bbd81610b88565b600060208284031215610c4557600080fd5b81518015158114610bbd57600080fd5b6000815180845260005b81811015610c7b57602081850181015186830182015201610c5f565b506000602082860101526020601f19601f83011685010191505092915050565b6001600160a01b0386811682528516602082015260ff8416604082015260c060608201819052600090610cd090830185610c55565b8281036080840152610ce28185610c55565b83810360a0909401939093525050600081526020019594505050505056fea26469706673582212203d45bc150c83e82b38f16fe9500a39cc758b06c9c7ac4336153844744a2d230064736f6c63430008130033",
  "linkReferences": {},
  "deployedLinkReferences": {}
}